{
  "contractName": "Grizz",
  "abi": [
    {
      "anonymous": false,
      "inputs": [
        {
          "indexed": true,
          "internalType": "address",
          "name": "_owner",
          "type": "address"
        },
        {
          "indexed": true,
          "internalType": "address",
          "name": "_spender",
          "type": "address"
        },
        {
          "indexed": false,
          "internalType": "uint256",
          "name": "_value",
          "type": "uint256"
        }
      ],
      "name": "approval",
      "type": "event"
    },
    {
      "anonymous": false,
      "inputs": [
        {
          "indexed": true,
          "internalType": "address",
          "name": "_from",
          "type": "address"
        },
        {
          "indexed": true,
          "internalType": "address",
          "name": "_to",
          "type": "address"
        },
        {
          "indexed": false,
          "internalType": "uint256",
          "name": "_value",
          "type": "uint256"
        }
      ],
      "name": "transfer",
      "type": "event"
    },
    {
      "constant": true,
      "inputs": [
        {
          "internalType": "address",
          "name": "",
          "type": "address"
        },
        {
          "internalType": "address",
          "name": "",
          "type": "address"
        }
      ],
      "name": "allowance",
      "outputs": [
        {
          "internalType": "uint256",
          "name": "",
          "type": "uint256"
        }
      ],
      "payable": false,
      "stateMutability": "view",
      "type": "function"
    },
    {
      "constant": true,
      "inputs": [
        {
          "internalType": "address",
          "name": "",
          "type": "address"
        }
      ],
      "name": "balanceOf",
      "outputs": [
        {
          "internalType": "uint256",
          "name": "",
          "type": "uint256"
        }
      ],
      "payable": false,
      "stateMutability": "view",
      "type": "function"
    },
    {
      "constant": true,
      "inputs": [],
      "name": "decimals",
      "outputs": [
        {
          "internalType": "uint8",
          "name": "",
          "type": "uint8"
        }
      ],
      "payable": false,
      "stateMutability": "view",
      "type": "function"
    },
    {
      "constant": true,
      "inputs": [],
      "name": "name",
      "outputs": [
        {
          "internalType": "string",
          "name": "",
          "type": "string"
        }
      ],
      "payable": false,
      "stateMutability": "view",
      "type": "function"
    },
    {
      "constant": true,
      "inputs": [],
      "name": "symbol",
      "outputs": [
        {
          "internalType": "string",
          "name": "",
          "type": "string"
        }
      ],
      "payable": false,
      "stateMutability": "view",
      "type": "function"
    },
    {
      "constant": true,
      "inputs": [],
      "name": "totalSupply",
      "outputs": [
        {
          "internalType": "uint256",
          "name": "",
          "type": "uint256"
        }
      ],
      "payable": false,
      "stateMutability": "view",
      "type": "function"
    },
    {
      "constant": false,
      "inputs": [
        {
          "internalType": "address",
          "name": "_spender",
          "type": "address"
        },
        {
          "internalType": "uint256",
          "name": "_value",
          "type": "uint256"
        }
      ],
      "name": "approve",
      "outputs": [
        {
          "internalType": "bool",
          "name": "success",
          "type": "bool"
        }
      ],
      "payable": false,
      "stateMutability": "nonpayable",
      "type": "function"
    },
    {
      "constant": false,
      "inputs": [
        {
          "internalType": "address",
          "name": "_to",
          "type": "address"
        },
        {
          "internalType": "uint256",
          "name": "_value",
          "type": "uint256"
        }
      ],
      "name": "ownerTransfer",
      "outputs": [
        {
          "internalType": "bool",
          "name": "success",
          "type": "bool"
        }
      ],
      "payable": false,
      "stateMutability": "nonpayable",
      "type": "function"
    },
    {
      "constant": false,
      "inputs": [
        {
          "internalType": "address",
          "name": "_from",
          "type": "address"
        },
        {
          "internalType": "address",
          "name": "_to",
          "type": "address"
        },
        {
          "internalType": "uint256",
          "name": "_value",
          "type": "uint256"
        }
      ],
      "name": "transferFrom",
      "outputs": [
        {
          "internalType": "bool",
          "name": "success",
          "type": "bool"
        }
      ],
      "payable": false,
      "stateMutability": "nonpayable",
      "type": "function"
    }
  ],
  "bytecode": "0x60806040526040518060400160405280600581526020017f4772697a7a0000000000000000000000000000000000000000000000000000008152506000908051906020019061004f9291906100d8565b506040518060400160405280600381526020017f47525a00000000000000000000000000000000000000000000000000000000008152506001908051906020019061009b9291906100d8565b5069d3c21bcecceda10000006002556012600360006101000a81548160ff021916908360ff1602179055503480156100d257600080fd5b5061017d565b828054600181600116156101000203166002900490600052602060002090601f016020900481019282601f1061011957805160ff1916838001178555610147565b82800160010185558215610147579182015b8281111561014657825182559160200191906001019061012b565b5b5090506101549190610158565b5090565b61017a91905b8082111561017657600081600090555060010161015e565b5090565b90565b610a7d8061018c6000396000f3fe608060405234801561001057600080fd5b50600436106100935760003560e01c8063313ce56711610066578063313ce5671461022557806370a082311461024957806395d89b41146102a1578063d85c896614610324578063dd62ed3e1461038a57610093565b806306fdde0314610098578063095ea7b31461011b57806318160ddd1461018157806323b872dd1461019f575b600080fd5b6100a0610402565b6040518080602001828103825283818151815260200191508051906020019080838360005b838110156100e05780820151818401526020810190506100c5565b50505050905090810190601f16801561010d5780820380516001836020036101000a031916815260200191505b509250505060405180910390f35b6101676004803603604081101561013157600080fd5b81019080803573ffffffffffffffffffffffffffffffffffffffff169060200190929190803590602001909291905050506104a0565b604051808215151515815260200191505060405180910390f35b610189610592565b6040518082815260200191505060405180910390f35b61020b600480360360608110156101b557600080fd5b81019080803573ffffffffffffffffffffffffffffffffffffffff169060200190929190803573ffffffffffffffffffffffffffffffffffffffff16906020019092919080359060200190929190505050610598565b604051808215151515815260200191505060405180910390f35b61022d610803565b604051808260ff1660ff16815260200191505060405180910390f35b61028b6004803603602081101561025f57600080fd5b81019080803573ffffffffffffffffffffffffffffffffffffffff169060200190929190505050610816565b6040518082815260200191505060405180910390f35b6102a961082e565b6040518080602001828103825283818151815260200191508051906020019080838360005b838110156102e95780820151818401526020810190506102ce565b50505050905090810190601f1680156103165780820380516001836020036101000a031916815260200191505b509250505060405180910390f35b6103706004803603604081101561033a57600080fd5b81019080803573ffffffffffffffffffffffffffffffffffffffff169060200190929190803590602001909291905050506108cc565b604051808215151515815260200191505060405180910390f35b6103ec600480360360408110156103a057600080fd5b81019080803573ffffffffffffffffffffffffffffffffffffffff169060200190929190803573ffffffffffffffffffffffffffffffffffffffff169060200190929190505050610a23565b6040518082815260200191505060405180910390f35b60008054600181600116156101000203166002900480601f0160208091040260200160405190810160405280929190818152602001828054600181600116156101000203166002900480156104985780601f1061046d57610100808354040283529160200191610498565b820191906000526020600020905b81548152906001019060200180831161047b57829003601f168201915b505050505081565b600081600560003373ffffffffffffffffffffffffffffffffffffffff1673ffffffffffffffffffffffffffffffffffffffff16815260200190815260200160002060008573ffffffffffffffffffffffffffffffffffffffff1673ffffffffffffffffffffffffffffffffffffffff168152602001908152602001600020819055508273ffffffffffffffffffffffffffffffffffffffff163373ffffffffffffffffffffffffffffffffffffffff167f5c52a5f2b86fd16be577188b5a83ef1165faddc00b137b10285f16162e17792a846040518082815260200191505060405180910390a36001905092915050565b60025481565b600081600460008673ffffffffffffffffffffffffffffffffffffffff1673ffffffffffffffffffffffffffffffffffffffff1681526020019081526020016000205410156105e657600080fd5b81600560008673ffffffffffffffffffffffffffffffffffffffff1673ffffffffffffffffffffffffffffffffffffffff16815260200190815260200160002060003373ffffffffffffffffffffffffffffffffffffffff1673ffffffffffffffffffffffffffffffffffffffff16815260200190815260200160002054101561066f57600080fd5b81600460008673ffffffffffffffffffffffffffffffffffffffff1673ffffffffffffffffffffffffffffffffffffffff1681526020019081526020016000206000828254039250508190555081600460008573ffffffffffffffffffffffffffffffffffffffff1673ffffffffffffffffffffffffffffffffffffffff1681526020019081526020016000206000828254019250508190555081600560003373ffffffffffffffffffffffffffffffffffffffff1673ffffffffffffffffffffffffffffffffffffffff16815260200190815260200160002060008673ffffffffffffffffffffffffffffffffffffffff1673ffffffffffffffffffffffffffffffffffffffff168152602001908152602001600020600082825403925050819055508273ffffffffffffffffffffffffffffffffffffffff168473ffffffffffffffffffffffffffffffffffffffff167fbeabacc8ffedac16e9a60acdb2ca743d80c2ebb44977a93fa8e483c74d2b35a8846040518082815260200191505060405180910390a3600190509392505050565b600360009054906101000a900460ff1681565b60046020528060005260406000206000915090505481565b60018054600181600116156101000203166002900480601f0160208091040260200160405190810160405280929190818152602001828054600181600116156101000203166002900480156108c45780601f10610899576101008083540402835291602001916108c4565b820191906000526020600020905b8154815290600101906020018083116108a757829003601f168201915b505050505081565b600081600460003373ffffffffffffffffffffffffffffffffffffffff1673ffffffffffffffffffffffffffffffffffffffff16815260200190815260200160002054101561091a57600080fd5b81600460003373ffffffffffffffffffffffffffffffffffffffff1673ffffffffffffffffffffffffffffffffffffffff1681526020019081526020016000206000828254039250508190555081600460008573ffffffffffffffffffffffffffffffffffffffff1673ffffffffffffffffffffffffffffffffffffffff168152602001908152602001600020600082825401925050819055508273ffffffffffffffffffffffffffffffffffffffff163373ffffffffffffffffffffffffffffffffffffffff167fbeabacc8ffedac16e9a60acdb2ca743d80c2ebb44977a93fa8e483c74d2b35a8846040518082815260200191505060405180910390a36001905092915050565b600560205281600052604060002060205280600052604060002060009150915050548156fea265627a7a723158207df084c8e2d01bd2ad4962b9ac1a4d91b45258425f96c17d31b4a12452520edb64736f6c63430005100032",
  "source": "pragma solidity  ^0.5.0;\n\ncontract Grizz{\n    string public name = 'Grizz';\n    string public symbol = 'GRZ';\n    uint256 public totalSupply = 1000000000000000000000000 ;// 1 million tokens\n    uint8 public decimals = 18; \n\n    event transfer(address indexed _from,address indexed _to,uint _value);\n    event approval(address indexed _owner,address indexed _spender,uint _value);\n\n    mapping(address => uint) public balanceOf;\n    mapping(address => mapping(address => uint))public allowance;\n\n\n    function approve(address _spender,uint _value)public returns(bool success){\n        allowance[msg.sender][_spender] = _value;\n        emit approval(msg.sender, _spender, _value);(msg.sender,_spender,_value);\n        return true;\n    }\n\n    function ownerTransfer(address _to,uint _value) public returns(bool success){\n        require(balanceOf[msg.sender] >= _value);\n        balanceOf[msg.sender] -= _value;\n        balanceOf[_to] += _value;\n        emit transfer(msg.sender,_to,_value);\n        return true;\n    }\n\n    function  transferFrom(address _from,address _to,uint _value) public returns(bool success){\n        require(balanceOf[_from]>= _value);\n        require(allowance[_from][msg.sender]>= _value);\n        balanceOf[_from] -= _value;\n        balanceOf[_to] += _value;\n        allowance[msg.sender][_from] -=_value;\n        emit transfer(_from,_to,_value);\n        return true;\n    }\n}\n",
  "sourcePath": "/Users/watercat/Coding/Crypto/defi-staking-app-starter-main/defi-staking-app-starter/src/contracts/Grizz.sol",
  "compiler": {
    "name": "solc",
    "version": "0.5.16+commit.9c3226ce.Emscripten.clang"
  },
  "schemaVersion": "3.4.3",
  "updatedAt": "2021-11-18T17:39:03.469Z",
  "devdoc": {
    "methods": {}
  },
  "userdoc": {
    "methods": {}
  }
}